:0300000002A73D17
:0CA73D00787FE4F6D8FD75812102A78426
:10B2A000E4F594F593F592F591F596F595F5B2F5EB
:10B2B000B1F5B4F5B3F5CAF5C9F5CCF5CBF5E2F5C2
:10B2C000E1C2C112770C12B9B912B4E4127F4F1265
:04B2D00065E680FBB4
:107ABC00900178EEF0A3EFF0A3ECF0A3EDF0A3EAC5
:047ACC00F0A3EBF048
:107AD00090018A12341800000000900178E0FFA3A2
:107AE000E0900192CFF0A3EFF090017AE0FFA3E0E5
:107AF000900194CFF0A3EFF090018E1234180000A3
:107B00000000900180E0F8A3E0F9A3E0FAA3E0FB15
:107B1000A3E0FCA3E0FDA3E0FEA3E0C39BFFEE9A7D
:107B2000FEED99FDEC98FCE47B02FAF9F812331CA7
:107B300090018EE0F8A3E0F9A3E0FAA3E0FBC31202
:107B400033BC4003027C6090018EE0FCA3E0FDA307
:107B5000E0FEA3E0FF900180E0F8A3E0F9A3E0FAE3
:107B6000A3E02FFFEA3EFEE93DFDE83CFC90027AEF
:107B7000E4F0A37402F07B017A01798812A9D7900E
:107B80000192E0FAA3E0FBFFAE02C007A3E0FCA372
:107B9000E0FD900194E0FFA3E0900290CFF0A3EF0E
:107BA000F0D00712B123900189E0FF900188E0FD39
:107BB00012B9CC900193E004F07006900192E004B9
:107BC000F0900178E0FEA3E0FF90017DE02FFD90B2
:107BD000017CE03EFC900192E0B50443A3E0B505D2
:107BE0003E900195E004F07006900194E004F0905E
:107BF0000192EEF0A3EFF090017AE0FEA3E0FF9097
:107C0000017FE02FFD90017EE03EFC900194E0B505
:107C1000040DA3E0B50508900194EEF0A3EFF090F9
:107C2000018EE0FCA3E0FDA3E0FEA3E02401FFE45D
:107C30003EFEE43DFDE43CFC90018E12340C9001CC
:107C40008EE0FCA3E0FDA3E0FEA3E02401FFE43E00
:107C5000FEE43DFDE43CFC90018E12340C027B02FC
:017C60002201
:107C6100900178EEF0A3EFF0A3ECF0A3EDF0A3EA1E
:067C7100F0FEA3EBF0FFA2
:107C7700A3E0FCA3E0FD1231A9EF25E0FFEE33FE00
:107C8700E4FCFD90018312340C900178E0FFA3E03F
:107C970090018BCFF0A3EFF090017AE0FFA3E09083
:107CA700018DCFF0A3EFF090018712341800000088
:107CB70000E47B02FAF9F8900183E0FCA3E0FDA35E
:107CC700E0FEA3E0FF12331C900187E0F8A3E0F980
:107CD700A3E0FAA3E0FBC31233BC4003027DDB90B1
:107CE700018BE0FAA3E0FBFFAE02C007A3E0FCA311
:107CF700E0FD90018DE0FFA3E0900290CFF0A3EFAD
:107D0700F0D00712B123E47F02FEFDFC900187E06B
:107D1700F8A3E0F9A3E0FAA3E0FB123291AD07ACB8
:107D270006ED2401FFE43CFE900180E0FBA3E0FAAE
:107D3700A3E0F98F828E8312316AFF8D828C8312C2
:107D4700316AFD12B9CC90018CE004F07006900105
:107D57008BE004F0900178E0FEA3E0FF90017DE066
:107D67002FFD90017CE03EFC90018BE0B50443A31E
:107D7700E0B5053E90018EE004F0700690018DE0BD
:107D870004F090018BEEF0A3EFF090017AE0FEA3F0
:107D9700E0FF90017FE02FFD90017EE03EFC900127
:107DA7008DE0B5040DA3E0B5050890018DEEF0A3B5
:107DB700EFF0900187E0FCA3E0FDA3E0FEA3E02441
:107DC70001FFE43EFEE43DFDE43CFC9001871234F4
:047DD7000C027CB866
:017DDB002285
:10B6D600EF1FAC0670011E4C600F0000000000005A
:0AB6E6000000000000000080E722D1
:10B63F00E4FDFCC3ED9FEC9E5015E4FBFA0BBB0041
:0FB64F00010ABA0AF8BB78F50DBD00010C80E4C2
:01B65E0022C9
:0D000E0043B44053B3BF43B42053B3DF22CB
:10B79D00D2C5D2C67F0A7E0012B6D6C2C57F0A7E3A
:07B7AD000012B6D6C2C6224D
:10B83800C2C5D2C67F0A7E0012B6D6D2C57F0A7E9E
:04B848000002B6D66E
:10B7E200A20092C5D2C67F0A7E0012B6D6C2C67F1A
:06B7F2000A7E0002B6D63B
:10B61E00D2C653B4DF43B3207F0A7E0012B6D6A241
:10B62E00C5C2C643B42053B3DF7F0A7E0012B6D61E
:01B63E0022E9
:05B3D30090018DEFF078
:10B3D800E4A3F090018DE025E0F092C5D2C67F0A83
:10B3E8007E0012B6D6C2C67F0A7E0012B6D690017B
:0DB3F8008EE004F0E0C3940840D902B61EB8
:10B04200E490018EF053B4DF43B32090018DF09071
:10B05200018EE025E0F0D2C67F0A7E0012B6D690BD
:10B06200018EE0FFA2C5E433FEEF4EF0C2C67F14AC
:10B072007E0012B6D690018DE004F0E0C394084041
:0CB08200CE43B42053B3DF90018EE0FFFA
:01B08E00229F
:0EB90F00438901758A34758CF5D2A9D2AF2216
:0EB91D00438910E4F58B758D28D2ABD2AF2292
:03000B0002B65FDB
:10B65F00C0E0C083C082C0D0758A34758CF5900469
:10B66F0069E0B40102B2C2D0D0D082D083D0E03230
:03001B0002B70A1F
:10B70A00C0E0C083C082758BB0758D3C900467E041
:09B71A0004F0D082D083D0E032AB
:10B84C0043A220E4F5CF75CED075CDC043B32453BD
:03B85C00B4FB2218
:10B6F000E4FEEF3392C1EF25E0FFD2C3A2C2E433F0
:09B700004FFFC2C30EEEB408E9CC
:01B70900221D
:10A95B00C5E4D6C3CDEAB3C900B4AEBFDA3120002B
:10A96B00B2E9D1AFCAB1BCE400C7BFD6C6C8EBCD04
:10A97B00F800D0C5BAC5D6CAC1BF00C0B4B5E7CFC1
:10A98B00D4CABE00D2BBBCFCC5E4D6C30041542B19
:10A99B00434F50533F0D0A0041542B434F50533DEF
:10A9AB00312C322C34363030300D0A0041542B43CD
:10A9BB0053510D0A0041542B434C49503D310D0A64
:0CA9CB000041542B43434C4B3F0D0A004D
:106061004102950041029A004102980041029200CA
:1060710041029700C10B410300024103660641033F
:106081006510410367064102990041029B004103EB
:106091006A0041036B0041036800410369006064C9
:1060A100029C000000000000000000000000000051
:1060B10000000000000000000000000000000000DF
:1060C10000000000000000000000000000000000CF
:1060D10000000000000000000000000000000000BF
:1060E10000000000000000000000000000000000AF
:1060F100000000000000000000000000000000009F
:1061010000000000000060640301000000000000C6
:10611100000000000000000000000000000000007E
:10612100000000000000000000000000000000006E
:10613100000000000000000000000000000000005E
:10614100000000000000000000000000000000004E
:10615100000000000000000000000000000000003E
:1061610000000000000000000000000000004102EB
:0A61710093004102940041029600E1
:10B723005392FE43910153B2FE43B101439202533C
:09B7330091FD43B20253B1FD2265
:10B8710075985075D7A075D6FC438E15D2ACD2AF52
:01B8810022A4
:10B85F00759A5075D7A075D6FC438E1543AF01D29C
:02B86F00AF2206
:0FB8C40090036AE070FA8F9990036A7401F02282
:0FB8D30090036BE070FA8F9B90036B7401F0226F
:10B2D40090017BEBF0A3EAF0A3E9F090017BE0FBA3
:10B2E400A3E0FAA3E0F9123151601790017BA3E4C3
:10B2F40075F00112325CA9F0FA123151FF12B8C490
:03B3040080D922CB
:10B30700900454EBF0A3EAF0A3E9F0900454E0FBB7
:10B31700A3E0FAA3E0F91231516017900454A3E4B3
:10B3270075F00112325CA9F0FA123151FF12B8D34D
:03B3370080D92298
:10A3E5009001927401F0A37430F074FFA3F0A3F010
:10A3F5007BF07A007D107C00E4FFFE12A4A19001A1
:10A4050081E4F0A37414F0A374F8F0A3E4F07B7670
:10A41500FA7D2C7C017F04FE12A85390019274FFF3
:10A42500F0A374A9F0A3745BF074FFA3F0A3F0A3E9
:10A4350074F8F0A3E4F07B02FA7D13FC7F03FE12AF
:10A445004DDD90017F7401F0A37428F074FFA3F033
:10A45500A3F07BEE7A007D1E7C007F807E00129C3F
:10A465005F90017F7401F0A37424F0E4A3F0A3F0DE
:10A475007B7DFA7D3CFC7F08FE129C5F900192E497
:10A48500F0A374E6F0A3747FF0A374FFF07B737AF6
:0CA49500007D3D7C007F097E0002A4A138
:1087F200900179EFF06003028884900192F0A374F3
:108802002DF074FFA3F0A3F07B557A007D147C0059
:108812007F147E0012A4A1900192E4F0A37423F0CD
:10882200A374BCF0A37440F07B4B7A007D197C00EA
:108832007F197E0012A4A1900192E4F0A3741BF0B0
:1088420074FFA3F0A3F07B437A007D1D7C007F1DA3
:108852007E0012A4A190019274FFF0A374A9F0A368
:108862007464F0A3E4F0A3741FF074FFA3F0A3F008
:108872007B027A007D027C007F057E00124DDDC204
:10888200AC22900179E064016003028912900192A6
:10889200F0A3742DF074FFA3F0A3F07B557A007D52
:1088A200147C007F147E0012A4A1900192E4F0A334
:1088B2007423F0A374F8F0A3E4F07B4BFA7D19FC67
:1088C2007F19FE12A4A1900192E4F0A3741BF0742C
:1088D200FFA3F0A3F07B437A007D1D7C007F1D7E09
:1088E2000012A4A190019274FFF0A374A9F0A374E2
:1088F20064F0A374F8F0A3E4F074FFA3F0A3F07B98
:10890200027A007D027C007F057E00124DDDD2AC32
:018912002242
:1080BB0090017FE4F0A3744AF0E4A3F0A3F07BE615
:1080CB00FA7D26FC7F8CFE129C5F90019274FFF070
:1080DB00A374A9F0A3746BF0A3E4F0A3741FF07462
:1080EB00FFA3F0A3F07B027A007D037C007F137E5D
:1080FB0000124DDD90017FE4F0A3747AF0E4A3F05D
:10810B00A3F07BE6FA7D56FC7F8CFE129C5F900100
:10811B009274FFF0A374A9F0A37474F0A3E4F0A31A
:10812B00741FF074FFA3F0A3F07B027A007D067C32
:10813B00007F137E00124DDD90017FE4F0A374AA43
:10814B00F0E4A3F0A3F07BE6FA7D86FC7F8CFE12B5
:10815B009C5F90019274FFF0A374A9F0A3747DF05F
:10816B00A3E4F0A3741FF074FFA3F0A3F07B027AD7
:10817B00007D097C007F137E00124DDD90017FE4B2
:10818B00F0A374DAF0E4A3F0A3F07BE6FA7DB6FC7F
:10819B007F8CFE129C5F90019274FFF0A374A9F088
:1081AB00A37486F0A3E4F0A3741FF074FFA3F0A3F1
:1081BB00F07B027A007D0C7C007F137E00124DDD7C
:1081CB0090017F7401F0A3740AF0E4A3F0A3F07B99
:1081DB00E6FA7DE6FC7F8CFE129C5F90019274FFA9
:1081EB00F0A374A9F0A3748FF0A3E4F0A3741FF0B1
:1081FB0074FFA3F0A3F07B027A007D0F7C007F134A
:05820B007E00024DDDC4
:10464F0012B72312A3E5E4FF1287F21280BB12B850
:10465F007112B85FD20B12B5DA12B9C6EF6003024E
:10466F004CA01294B5EF7003024CA0900403E0FE2F
:10467F00A3E0FFD3942CEE94014028EF9440EE94E6
:10468F00015020900401E0FEA3E0FF9404EE94009B
:10469F005003024CA0EF947AEE94004003024CA01A
:1046AF000265E6900403E0FEA3E0FFC39434EE94AA
:1046BF00005042EF941CEE9400403A900401E0FE4B
:1046CF00A3E0FF9440EE94004003024CA0EF94232C
:1046DF00EE94005003024CA0B20B300B0A12B9C675
:1046EF00EF60FA7F01800812B9C6EF60FAE4FF129B
:1046FF0087F2024CA0900403E0FEA3E0FFD39426C0
:10470F00EE940050030247CEEF944AEE940040031C
:10471F000247CE900401E0FEA3E0FFC394E6EE94BF
:10472F00004003024CA0EF948CEE94005003024C17
:10473F00A0900181E4F0A37423F0A37407F0A37495
:10474F00E0F07B597A007D277C007F8D7E0012A8D8
:10475F005312B9C6EF60FA900181E4F0A37424F00C
:10476F0074FFA3F0A3F07B5A7A007D267C007F8C28
:10477F007E0012A85390017FE4F0A3744AF0E4A3E3
:10478F00F0A3F07BE6FA7D26FC7F8CFE129C5F90F7
:10479F00019274FFF0A374A9F0A3746BF0A3E4F07B
:1047AF00A3741FF074FFA3F0A3F07B027A007D03C4
:1047BF007C007F137E00124DDD12B995024CA09044
:1047CF000403E0FEA3E0FFD39456EE9400500302DF
:1047DF004898EF947AEE94004003024898900401B1
:1047EF00E0FEA3E0FFC394E6EE94004003024CA06A
:1047FF00EF948CEE94005003024CA0900181E4F0F2
:10480F00A37423F0A37407F0A374E0F07B597A002C
:10481F007D577C007F8D7E0012A85312B9C6EF60C2
:10482F00FA900181E4F0A37424F074FFA3F0A3F0D5
:10483F007B5A7A007D567C007F8C7E0012A85390A5
:10484F00017FE4F0A3747AF0E4A3F0A3F07BE6FA1F
:10485F007D56FC7F8CFE129C5F90019274FFF0A33B
:10486F0074A9F0A37474F0A3E4F0A3741FF074FFA1
:10487F00A3F0A3F07B027A007D067C007F137E00FD
:10488F00124DDD12B97A024CA0900403E0FEA3E0B2
:10489F00FFD39486EE94005003024962EF94AAEE80
:1048AF0094004003024962900401E0FEA3E0FFC3BD
:1048BF0094E6EE94004003024CA0EF948CEE94002B
:1048CF005003024CA0900181E4F0A37423F0A37471
:1048DF0007F0A374E0F07B597A007D877C007F8D11
:1048EF007E0012A85312B9C6EF60FA900181E4F06E
:1048FF00A37424F074FFA3F0A3F07B5A7A007D8693
:10490F007C007F8C7E0012A85390017FE4F0A3748B
:10491F00AAF0E4A3F0A3F07BE6FA7D86FC7F8CFE81
:10492F00129C5F90019274FFF0A374A9F0A3747DA1
:10493F00F0A3E4F0A3741FF074FFA3F0A3F07B02C5
:10494F007A007D097C007F137E00124DDD12B98342
:10495F00024CA0900403E0FEA3E0FFD394B6EE94C4
:10496F00005003024A2CEF94DAEE94004003024AFF
:10497F002C900401E0FEA3E0FFC394E6EE94004008
:10498F0003024CA0EF948CEE94005003024CA090C5
:10499F000181E4F0A37423F0A37407F0A374E0F093
:1049AF007B597A007DB77C007F8D7E0012A8531251
:1049BF00B9C6EF60FA900181E4F0A37424F074FF9C
:1049CF00A3F0A3F07B5A7A007DB67C007F8C7E002B
:1049DF0012A85390017FE4F0A374DAF0E4A3F0A3DC
:1049EF00F07BE6FA7DB6FC7F8CFE129C5F90019205
:1049FF0074FFF0A374A9F0A37486F0A3E4F0A3747A
:104A0F001FF074FFA3F0A3F07B027A007D0C7C00F3
:104A1F007F137E00124DDD12B98C024C9A90040365
:104A2F00E0FEA3E0FFD394E6EE94005003024CA007
:104A3F00EF940AEE94014003024CA0900401E0FEB3
:104A4F00A3E0FFC394E6EE94004003024CA0EF9462
:104A5F008CEE94005003024CA0900181E4F0A374FB
:104A6F0023F0A37407F0A374E0F07B597A007DE77D
:104A7F007C007F8D7E0012A85312B9C6EF60FA90AA
:104A8F000181E4F0A37424F074FFA3F0A3F07B5A28
:104A9F007A007DE67C007F8C7E0012A85390017F08
:104AAF007401F0A3740AF0E4A3F0A3F07BE6FA7D9F
:104ABF00E6FC7F8CFE129C5F90019274FFF0A37452
:104ACF00A9F0A3748FF0A3E4F0A3741FF074FFA3F5
:104ADF00F0A3F07B027A007D0F7C007F137E001223
:104AEF004DDD7F011287F2900181E4F0A37423F072
:104AFF00A37407F0A374E0F07B597A007D577C0014
:104B0F007F8D7E0012A8537FE87E0312B63F12B945
:104B1F007A900181E4F0A37424F074FFA3F0A3F062
:104B2F007B5A7A007D567C007F8C7E0012A85390B2
:104B3F00017FE4F0A3747AF0E4A3F0A3F07BE6FA2C
:104B4F007D56FC7F8CFE129C5F90019274FFF0A348
:104B5F0074A9F0A37474F0A3E4F0A3741FF074FFAE
:104B6F00A3F0A3F07B027A007D067C007F137E000A
:104B7F00124DDD900181E4F0A37423F0A37407F0CC
:104B8F00A374E0F07B597A007D877C007F8D7E00D7
:104B9F0012A8537FE87E0312B63F12B983900181AA
:104BAF00E4F0A37424F074FFA3F0A3F07B5A7A000F
:104BBF007D867C007F8C7E0012A85390017FE4F0ED
:104BCF00A374AAF0E4A3F0A3F07BE6FA7D86FC7F42
:104BDF008CFE129C5F90019274FFF0A374A9F0A356
:104BEF00747DF0A3E4F0A3741FF074FFA3F0A3F09F
:104BFF007B027A007D097C007F137E00124DDD90D1
:104C0F000181E4F0A37423F0A37407F0A374E0F020
:104C1F007B597A007DB77C007F8D7E0012A8537F71
:104C2F00E87E0312B63F12B98C900181E4F0A374B1
:104C3F0024F074FFA3F0A3F07B5A7A007DB67C00BA
:104C4F007F8C7E0012A85390017FE4F0A374DAF0FA
:104C5F00E4A3F0A3F07BE6FA7DB6FC7F8CFE129CFA
:104C6F005F90019274FFF0A374A9F0A37486F0A370
:104C7F00E4F0A3741FF074FFA3F0A3F07B027A009B
:104C8F007D0C7C007F137E00124DDD90029A740123
:104C9F00F0900368E0D394005003024DC2200B0341
:104CAF00024DC2E4900178F0900178E0FF249CF56A
:104CBF0082E43402F583E07003024DC2749C2FF539
:104CCF0082E43402F583E0D3941F4065900300E043
:104CDF0075F008A4FFAEF0C006C007900366E0753C
:104CEF00F010A4FDACF0900178E0249CF582E43440
:104CFF0002F583E075F010A42426F974FE35F0FA5E
:104D0F009001A774FFF0A3EAF0A3E9F09001A5E4E6
:104D1F00F0A37410F0E49001AAF0A3F0A3747FF055
:104D2F00A374FFF0D007D0067B087A001299988001
:104D3F0038900178E0249CF582E43402F583E0B4E6
:104D4F000D10900178E004F07FF47E0112B63F025F
:104D5F004CB7900178E0249CF582E43402F583E0AF
:104D6F00B40A06900300740DF0900300E004F0D332
:104D7F00940D40317402F0900366E004F0D3941167
:104D8F0040237405F0900192E4F0A374E6F0A3744D
:104D9F007FF0A374FFF07B737A007D3D7C007F0969
:104DAF007E0012A4A1900178E004F0D39463500325
:104DBF00024CB7C2AC7E007F647D007B017A027922
:0E4DCF009C1235A5E4900368F0D2AC02466554
:09B971007BFF7AA9799802B2D497
:09B97A007BFF7AA979A302B2D483
:09B983007BFF7AA979B702B2D466
:09B98C007BFF7AA979C002B2D454
:09B995007BFF7AA979CC02B2D43F
:030023000278E779
:0F78E700C0E0C083C082C0D075D000C006C0070B
:1078F600209803027AA5C298AF99EFC394804003FB
:10790600027AA5EF94005003027AA5900368E0FE80
:10791600D3942A748094814010749C2EF582E434AA
:1079260002F583E4F0900368F0900368E0FE04F04B
:10793600749C2EF582E43402F583EFF0B45208907D
:1079460002937401F08039EFB4490C900293E0B4CD
:1079560001057402F08029EFB44E0C900293E0B456
:1079660002057403F08019EFB44710900293E0B457
:107976000309E4F090029704F08005900293E4F086
:10798600EFB42B089002947401F08059EFB4430CC5
:10799600900294E0B401057402F08049EFB44C0CF7
:1079A600900294E0B402057403F08039EFB4490CF8
:1079B600900294E0B403057404F08029EFB4500CEF
:1079C600900294E0B404057405F08019EFB43A10FF
:1079D600900294E0B40509E4F090029804F0800562
:1079E600900294E4F0900298E064016003027A80C9
:1079F600EF640D7003027AAFEF640A706A90036950
:107A0600F0900298F0900304E09003A7F09003052D
:107A1600E09003A8F0900306E09003A9F090030716
:107A2600E09003AAF0900308E09003ABF0900309FE
:107A3600E09003ACF090030AE09003ADF090030BE6
:107A4600E09003AEF090030CE09003AFF090030DCE
:107A5600E09003B0F090030EE09003B1F0A3E4F0E1
:107A660090029204F08042900369E0FE04F07401F3
:107A76002EF582E43403F583EFF0EFB44F0890025D
:107A8600967401F08019EFB44B10900296E0B401A1
:107A960009E4F090029504F08005900296E4F03037
:097AA6009907C29990036AE4F00B
:0D7AAF00D007D006D0D0D082D083D0E032F6
:0C617B00420428EF17C10C42042C000065
:10B4E4004391105392EF5391F743922853C9FE436B
:10B4F400CA01E5A254F342A275CDC0D2C8E4F5CF87
:04B5040075CED2220C
:0FB8A400E4C2C87F0512B6AE7FFF12B6AED2C89F
:01B8B3002272
:10B08F00E4900457F0A3F012B8A4EF20E0F9C2C87F
:10B09F007F9012B6AEE4FF12B6AEE4FF12B6AEE486
:10B0AF00FF12B6AE7FFF12B6AEEF900457F0A3E4D7
:10B0BF00F07FFF12B6AE900457E0FEA3E04FFF9073
:0AB0CF000457EEF0FEA3EFF0D2C824
:01B0D9002254
:0FB69F00A3E0FDA3A3E4FFFEE47810FC1233CD7B
:0DB6AE008FCFE5CD30E7FB75CDC0AFCF22CB
:03B9D10002B8E2D7
:10B22D0090044012340C12B967C2C87FD812B6AE62
:10B23D0090044012B69F900440A3A3E0FEA3E4FF48
:10B24D00E4FD780812B6AA900440E0FCA3E0FDA34B
:0EB25D00E0FEA3E0FFE412B6AED2C802B7B422
:10B1AB0090044412340C12B967C2C87F2012B6AE99
:10B1BB0090044412B69F900444A3A3E0FEA3E4FFC3
:10B1CB00E4FDFC78081233CD12B6AE900444E0FCDB
:10B1DB00A3E0FDA3E0FEA3E0FFE412B6AED2C802EB
:02B1EB00B7B4F7
:0FB8E20012B967C2C87FC712B6AED2C802B7B4D8
:06B9C0000000000000225F
:0AB96700C2C87F0612B6AED2C82295
:10B7B400E4FEC2C87F0512B6AEE4FF12B6AEAE0711
:06B7C400EE20E0F5D2C802
:01B7CA00225C
:10A9D700900273EBF0A3EAF0A3E9F0A312340C1290
:10A9E700B8A4EF20E0F9C2C87F0312B6AE90027692
:10A9F70012B69F900276A3A3E0FEA3E4FFE4FDFC5A
:10AA070078081233CD12B6AE900276E0FCA3E0FDD3
:10AA1700A3E0FEA3E0FF12B6AE90027A74FFF5F052
:10AA270012325C45F060207FFF12B6AE900273E0F1
:10AA3700FBA3E0FAA3E0F9EF123197900274E475F3
:0AAA4700F00112324680D2D2C8227C
:10B46800D6F7BDE7C3E600B5B1C7B0BBB7BEB3BC3E
:10B47800ECB2E23A00B9E2D5D5B6C83A00CEC2B6C7
:0CB48800C83A00CAAAB6C83A000000008A
:09B99E0043B41053B3EF02000E94
:10B7550090018CEFF012B79D7F4612B3D390018C08
:08B76500E0FF12B3D302B83873
:10B1680012B79D7F4712B3D3E490018CF012B0421E
:10B1780090018CE0FE24EBF582E43403F583EFF0D4
:10B18800EEB40304D2008002C20012B7E290018C30
:10B19800E004F0E0C3940340D412B8387F057E0081
:03B1A80002B63FAD
:05001E007F0102B7554F
:10A0BD007F0112B7557F1012B7557FB47E0012B6CF
:10A0CD003F12B1689003EBE0FEA3E07C002400FB9F
:10A0DD00EC3EFAAD03FCE4122DA27B9A7A997999A4
:10A0ED00783F122C87122DDBAA06AB077C277D103B
:10A0FD001231BBEF24309003EEF0AE02AF037C279C
:10A10D007D101231BBAB05AA047C037DE8AF03AE15
:10A11D00021231BBEF2430A3F07C037DE8AF03AE18
:10A12D00021231BBAA04AB057C007D64AF03AE0205
:10A13D001231BBEF2430A3F07C007D64AF03AE027F
:10A14D001231BBAA04AB057C007D0AAF03AE02122F
:10A15D0031BBEF2430A3F07C007D0AAF03AE0212B9
:10A16D0031BBAB05EB2430A3F0E4A3F07B017A0304
:10A17D0079EE900193F0A3F0A3747FF0A374FFF038
:0BA18D007D037C007F077E00026892CB
:09B9A700D2C443B41053B3EF22E3
:09B9B000D2C453B4EF43B31022DA
:10B7F80012B9A7C2C47F1E7E0012B63F12B9B07F2D
:06B808001E7E0002B6D610
:10B1ED00E490018EF090018DF090018EE025E0F05D
:10B1FD0020C4FD7F287E0012B6D630C4FD7F237E8D
:10B20D000012B6D630C40790018EE04401F09001D3
:0FB21D008DE004F0E0C3940840CF90018EE0FF75
:01B22C0022FF
:10A5FF0012B7F820C4FD7F507E0012B6D630C4FDCE
:10A60F007F507E0012B6D612B1ED9003FAEFF01222
:10A61F00B1ED9003FCEFF012B1ED9003FBEFF012F0
:10A62F00B1ED9003EAEFF012B1ED90018CEFF02055
:10A63F00C4FD7F327E0012B6D612B9A79003FCE09C
:10A64F00FF9003FAE02FFFA3E02FFF9003EAE02F24
:10A65F00FF90018CE06F70389003FBE0FD75F00AFE
:10A66F008424309003F7F0ED75F00A84E5F0243080
:10A67F00A3F0E4A3F0A3E0FD75F00A842430900367
:10A68F00F4F0ED75F00A84E5F02430A3F0E4A3F0C4
:01A69F002298
:1095B8009001927401F0A37430F0A3747DF0A314A9
:1095C800F07BF07A007D107C00E4FFFE12A4A17D00
:1095D8001F7C007F137E0012A8D890019274FFF0C0
:1095E800A374B4F0A37468F074FFA3F0A3F0A37499
:1095F800F8F0A3E4F07B02FA7D13FCFFFE124DDDC8
:1096080090019274FFF0A374B4F0A3746FF0A37484
:10961800BCF0A37440F074FFA3F0A3F07B027A00BF
:109628007D017C007F087E00124DDD90019274FF61
:10963800F0A374B4F0A3747DF074FFA3F0A3F0A3B7
:10964800E4F0A3741FF07B027A007D037C00E4FF42
:10965800FE124DDD90019274FFF0A374B4F0A37470
:1096680085F074FFA3F0A3F0A3E4F0A3741FF07BCC
:10967800027A007D037C007F0D7E00124DDD900193
:109688009274FFF0A374B4F0A3748BF074FFA3F08A
:10969800A3F0A3E4F0A3741FF07B027A007D037C9F
:0896A800007F157E00024DDD7C
:10713A00900192E4F0A374C8F0A3747DF0A314F054
:10714A007BC87A007D467C007F147E0012A4A19041
:10715A0001927401F0A3740EF0A3E4F0A3741FF07B
:10716A007B147A007D467C007F147E0012751E9087
:10717A000192E4F0A37450F0A3E4F0A3741FF07B2F
:10718A000F7A007D467C007F147E0012751E9001E6
:10719A0092E4F0A37450F0A3E4F0A3741FF07B19F7
:1071AA007A007D467C007F147E0012751E90019243
:1071BA007401F0A3740EF0A3E4F0A3741FF07BDC57
:1071CA007A007D0E7C017F147E0012751E9001925A
:1071DA007401F0A37409F0A3E4F0A3741FF07BD246
:1071EA007A007D0E7C017FDC7E0012751E90019272
:1071FA007401F0A37413F0A3E4F0A3741FF07BD21C
:10720A007A007D0E7C017FDC7E0012751E90019251
:10721A00E4F0A3745AF0A3E4F0A3741FF07B197A84
:10722A00007D5A7C007F147E0012751E900192E444
:10723A00F0A3746EF0A3E4F0A3741FF07B197A0034
:10724A007D6E7C007F147E0012751E900192E4F020
:10725A00A37482F0A3E4F0A3741FF07B197A007D73
:10726A00827C007F147E0012751E900192E4F0A3C6
:10727A007496F0A3E4F0A3741FF07B197A007D964C
:10728A007C007F147E0012751E900192E4F0A374B4
:10729A00AAF0A3E4F0A3741FF07B197A007DAA7CFC
:1072AA00007F147E0012751E900192E4F0A374BE52
:1072BA00F0A3E4F0A3741FF07B197A007DBE7C0072
:1072CA007F147E0012751E900192E4F0A374D2F02E
:1072DA00A3E4F0A3741FF07B197A007DD27C007FAF
:1072EA00147E0012751E900192E4F0A374E6F0A3D6
:1072FA00E4F0A3741FF07B197A007DE67C007F140A
:10730A007E0012751E900192E4F0A374FAF0A3E4D1
:10731A00F0A3741FF07B197A007DFA7C007F147E3B
:04732A000002751ECA
:106F3900900178E4F0A37414F0A37401F0A3740E23
:106F4900F0900180E4F0A37414F0A37401F0A37429
:106F59000EF09001887408F078897C017D017BFF2F
:106F69007AB479917E007F0312312B1295B812B948
:106F79009E12713A12001E12B91DD28E12B9C6EFB5
:106F8900702D1294B5EF6027C3900402E0943090FD
:106F99000401E094005018900404E0942A9004033A
:106FA900E09401400AC28EC2ABE4900467F0221259
:106FB900A0BD900467E0D3945040C1E4F012A5FF4E
:106FC9007B017A0379F790019374FFF0A374E0F0E1
:106FD900A3747DF0A314F07D037C007F127E001260
:106FE90068927B017A0379F49001937407F0A37492
:106FF900E0F0A3747DF0A314F07D037C007F1A7E7A
:1070090000126892C3900179E094C8900178E094E5
:10701900004003027122900188E0FD7C0090017814
:10702900E0FAA3E0FB2DFEEC3A90017CF0A3CEF050
:107039009003FBE075F002A4FFAEF0C3740E9F90BD
:10704900017FF074019E90017EF0AF03AE02C0078C
:1070590090017AE0FCA3E0FDA3E0FAA3E0FBA3E042
:10706900FFA3E0900192CFF0A3EFF0A374FFF0A388
:1070790074E0F0D00712751E90017CE0FFA3E09048
:107089000178CFF0A3EFF090017EE0FFA3E090013B
:107099007ACFF0A3EFF0900188E0FD7C00900180A9
:1070A900E0FAA3E0FB2DFEEC3A900184F0A3CEF0C8
:1070B9009003FAE075F002A4FFAEF0C3740E9F903E
:1070C9000187F074019E900186F0AF03AE02C007FC
:1070D900900182E0FCA3E0FDA3E0FAA3E0FBA3E0BA
:1070E900FFA3E0900192CFF0A3EFF0A37407F0A300
:1070F90074E0F0D00712751E900184E0FFA3E090C0
:107109000180CFF0A3EFF0900186E0FFA3E09001AA
:1071190082CFF0A3EFF0026F85900178E4F0A374B9
:1071290014F0900180E4F0A37414F012713A026F24
:0171390085D0
:046187004104680067
:0DB9390053B1EF43B11043CCC053CB3F22BC
:03B9D400C2EE229E
:03B9D700C2EF229A
:03B9DA00D2EE2288
:03B9DD00D2EF2284
:10B5B800EF14600F14601114601324037013C2EEAB
:10B5C800D2EF22D2EEC2EF22C2EEC2EF22D2EED2E8
:02B5D800EF2260
:10B5080020B4197F647E0012B63F20B40F900468FF
:10B51800E0FF04F0EFD394044002E4F0900468E004
:04B52800FF02B5B8B1
:10AC83004350553A535443313557344B3438533486
:10AC930000D2D7CBBCB4EFBFC6BCBC00D6F7BDE770
:10ACA300C3E6004C4344583A004C4344593A0063CA
:10ACB3006C656172002020202020002D2D312D2D68
:10ACC300002D2D332D2D002D2D352D2D002D2D3720
:10ACD3002D2D002D2D392D2D002D2D2D2D2D002524
:07ACE3006400202020200086
:105D74007D007CF8E4FFFE12A8D87BFF7AAC79831F
:105D840074FF900193F0A3F0A374F8F0A3E4F0FD82
:105D9400FCFFFE12689290019274FFF0A374ACF0C1
:105DA400A37494F074FFA3F0A3F0A374F8F0A3E435
:105DB400F07B02FAFDFC7F14FE124DDD900192741B
:105DC40001F0A37420F074FFA3F0A3F07BC87A0061
:105DD4007D107C00E4FFFE12A4A19001927401F0F6
:105DE400A37420F0A3747DF0A314F07B287A007DC3
:105DF400107C007FC87E0012A4A17D1F7C007F134D
:105E04007E0012A8D890019274FFF0A374ACF0A3A2
:105E1400749FF074FFA3F0A3F0A374F8F0A3E4F06C
:105E24007B02FA7D13FCFFFE124DDD7BFF7AAC7919
:105E3400A690019374F8F0A3E4F0A3F0A3741FF008
:105E44007D137C007F097E001268927BFF7AAC7917
:105E5400AC90019374F8F0A3E4F0A3F0A3741FF0E2
:105E64007D137C007F147E001268927BFF7AAC79EC
:105E7400B2E4900193F0A3F0A374C6F0A37418F0F5
:105E84007D017C007F197E001268927BFF7AAC79D9
:105E9400B890019374F8F0A3741FF0A374F8F0A3FE
:105EA400741FF07D027C007F197E001268927BFFD4
:105EB4007AAC79BEE4900193F0A3F0A374C6F0A386
:105EC4007418F07D037C007F197E001268929001A3
:105ED400AFE4F0A3741FF07B017D487C007FDC7E7F
:105EE4000012A5897BFF7AAC79C4E4900193F0A3F6
:105EF400F0A374C6F0A37418F07D057C007F197EAE
:105F0400001268929001AFE4F0A3741FF07B037D4C
:105F1400667C007FDA7E0012A5897BFF7AAC79CAA1
:105F2400E4900193F0A3F0A374C6F0A37418F07D79
:105F3400077C007F197E001268929001AFE4F0A301
:105F4400741FF07B057D857C007FD97E0012A589B6
:105F54007BFF7AAC79D0E4900193F0A3F0A374C6EC
:105F6400F0A37418F07D097C007F197E00126892FA
:105F74009001AFE4F0A3741FF07B077DA47C007F45
:105F8400D87E0012A5897BFF7AAC79D6E490019380
:105F9400F0A3F0A374C6F0A37418F07D0B7C007F0B
:105FA400197E001268929001AFE4F0A3741FF07B95
:105FB400097DC37C007FD77E0012A5897BFF7AAC64
:105FC40079DCE4900193F0A3F0A374C6F0A37418F1
:105FD400F07D0D7C007F197E001268929001AF74F1
:105FE400F8F0A3E4F07B0F7DE8FC7FCAFE12A589DC
:105FF4009001AF74FFF0A374E0F07B0F7DE87C00A8
:106004007FDE7E0012A5899001AFE4F0A3741FF037
:106014007B0F7DFF7C007FCA7E0012A5899001AFB3
:10602400747FF0A374FFF07B0FFD7C007FDE7E00A5
:1060340012A589E49001AFF0A3F07B0F7D167C01DB
:106044007FCAFE12A5899001AF74BCF0A37440F01E
:0D6054007B0F7D167C017FDE7E0002A5899A
:10A1980090018274FFF0A374ACF0A374E2F0900411
:10A1A80001E0FFA3E0900185CFF0A3EFF07B017AF7
:10A1B80001797B12559A7BFF7AAC79E5900193740B
:10A1C800F8F0A3E4F0A3F0A3741FF07D137C007FE4
:10A1D8000E7E001268927B017A01797B900193745C
:10A1E800F8F0A3E4F0A3F0A3741FF07D137C007FC4
:10A1F8000E7E0012689290018274FFF0A374ACF096
:10A20800A374E2F0900403E0FFA3E0900185CFF08F
:10A21800A3EFF07B017A01797B12559A7BFF7AAC28
:10A2280079E590019374F8F0A3E4F0A3F0A3741F08
:10A23800F07D137C007F197E001268927B017A0101
:10A24800797B90019374F8F0A3E4F0A3F0A3741F52
:0CA25800F07D137C007F197E00026892EC
:106D2000900178E4F0A3741FF0A37401F0125D7475
:106D300012B5DA12B9C6EF70F71294B5EF60F190A0
:106D40000401E0FEA3E0FFC394C8EE94005033A317
:106D5000E0FCA3E0FD9410EC94004026ED942AECB6
:106D60009401501EC00790017AE0FB900178E0FF8B
:106D7000A3E09001AFCFF0A3EFF0D00712A58902F6
:106D80006F33C3900402E09430900401E09400500B
:106D90000F900404E0942A900403E094014001223F
:106DA000D3900402E094C8900401E09400500302E0
:106DB0006F33900403E0FEA3E0FFD39420EE940031
:106DC0005003026F33EF9430EE94014003026F33AF
:106DD000C3EF9430EE940050219001927401F0A31F
:106DE0007420F074FFA3F0A3F07BC87A007D107CC0
:106DF00000E4FFFE12A4A1026F33900403E0FEA39F
:106E0000E0FFD39440EE94004011EF9450EE9400D4
:106E1000500990017A7401F0026F33900403E0FE90
:106E2000A3E0FFD39460EE94004011EF9470EE94D1
:106E300000500990017A7403F0026F33D3EF94800D
:106E4000EE94004011EF9490EE9400500990017A76
:106E50007405F0026F33D3EF94A0EE94004011EF6D
:106E600094B0EE9400500990017A7407F0026F33E9
:106E7000D3EF94C0EE94004011EF94D0EE94005004
:106E80000990017A7409F0026F33D3EF94E4EE9421
:106E900000402BEF94F3EE94005023C3900402E0E3
:106EA00094DC900401E09400900178500874F8F0AC
:106EB000A3E4F0807E74FFF0A374E0F0807590048A
:106EC00003E0FEA3E0FFD394FBEE9400402BEF948D
:106ED0000AEE94015023C3900402E094DC90040174
:106EE000E094009001785008E4F0A3741FF0804310
:106EF000747FF0A374FFF0803A900403E0FEA3E0F7
:106F0000FFD39412EE9401402AEF9421EE940150A5
:106F100022C3900402E094DC900401E09400500944
:106F2000E4900178F0A3F0800A90017874BCF0A39B
:096F30007440F012A198026D30CA
:10B49400D6F7BDE7C3E600B7E4C3F9C6F74F46469F
:10B4A40000B7E4C3F9C6F74F4E00C8EBC7D64F4602
:09B4B4004600C8EBC7D64F4E005C
:04618B004104690062
:0FB8F10043B40453B3FB53B4F743B308C2C222AA
:03B9E000D2C222AE
:03B9E300C2C222BB
:10AE62009001927401F0A37430F0A3747DF0A314E6
:10AE7200F07BF07A007D107C00E4FFFE12A4A17D3D
:10AE82001F7C007F137E0012A8D890019274FFF0FD
:10AE9200A374B4F0A37494F074FFA3F0A3F0A374AA
:10AEA200F8F0A3E4F07B02FA7D13FCFFFE024DDD15
:10909D00900178EFF07072900192F0A37435F07436
:1090AD00FFA3F0A3F07B707A007D4B7C007F377EB1
:1090BD000012A4A1900192E4F0A3742BF0A374BC50
:1090CD00F0A37440F07B667A007D507C007F3C7E7F
:1090DD000012A4A1900192E4F0A37427F074FFA3F1
:1090ED00F0A3F07B627A007D527C007F3E7E001201
:1090FD00A4A190019274FFF0A374B4F0A3749BF03B
:10910D00A374BCF0A374408076900178E064016094
:10911D00030291A2900192F0A37435F074FFA3F0B5
:10912D00A3F07B707A007D4B7C007F377E0012A40C
:10913D00A1900192E4F0A3742BF0A374F8F0A3E4D2
:10914D00F07B66FA7D50FC7F3CFE12A4A19001924B
:10915D00E4F0A37427F074FFA3F0A3F07B627A0010
:10916D007D527C007F3E7E0012A4A190019274FF7F
:10917D00F0A374B4F0A374A5F0A374F8F0A3E4F015
:10918D0074FFA3F0A3F07B027A007D067C007F0ABA
:06919D007E00124DDD22F0
:1091A300900178EFF07072900192F0A37435F0742F
:1091B300FFA3F0A3F07B707A007DAA7C007F377E4B
:1091C3000012A4A1900192E4F0A3742BF0A374BC49
:1091D300F0A37440F07B667A007DAF7C007F3C7E19
:1091E3000012A4A1900192E4F0A37427F074FFA3EA
:1091F300F0A3F07B627A007DB17C007F3E7E00129B
:10920300A4A190019274FFF0A374B4F0A374AEF020
:10921300A374BCF0A374408076900178E06401608D
:10922300030292A8900192F0A37435F074FFA3F0A7
:10923300A3F07B707A007DAA7C007F377E0012A4A6
:10924300A1900192E4F0A3742BF0A374F8F0A3E4CB
:10925300F07B66FA7DAFFC7F3CFE12A4A1900192E5
:10926300E4F0A37427F074FFA3F0A3F07B627A0009
:109273007DB17C007F3E7E0012A4A190019274FF19
:10928300F0A374B4F0A374B6F0A374F8F0A3E4F0FD
:1092930074FFA3F0A3F07B027A007D0C7C007F0AAD
:0692A3007E00124DDD22E9
:109A8A00C200C20112AE62E4FF12909DE4FF12917D
:109A9A00A312B8F112B90F12B939D28C029B711202
:109AAA00B9C6EF6003029B531294B5EF7003029B91
:109ABA0053900401E0FEA3E0FFC39430EE940050FB
:109ACA001A900404E0942A900403E09401400CC222
:109ADA008CC2A9C2AFE4900467F022C3EF94A0EE4F
:109AEA0094005065900402E0943E900401E09400D2
:109AFA004057900403E0FEA3E0FF9479EE940050EF
:109B0A001CEF9452EE9400401412B9C6EF60FAB2F8
:109B1A00003000047F018002E4FF12909D9004034C
:109B2A00E0FEA3E0FFC394D8EE9400501CEF94B17A
:109B3A00EE9400401412B9C6EF60FAB20130010483
:109B4A007F018002E4FF1291A33000153001123028
:109B5A00C30F9004697401F012B9D412B9D7029AEA
:0F9B6A00A912B9DA12B9DDE4900469F0029AA9E0
:10ADB0004350553A535443313557344B3438533458
:10ADC00000D2D7CBBCB4EFBFC6BCBC00B4A5C3FE99
:10ADD000BBADB0E500D2A3BFD8BCCCB5E700C5E49D
:10ADE000D6C3BDE7C3E6002020B2A6BAC520200026
:10ADF000BBB7BEB3BCE0B2E200C8EBC7D6B1A8BED9
:0BAE0000AF0020B5E7BBB0B2BE2000E1
:04618F0041046A005D
:106334007D007CF8E4FFFE12A8D87BFF7AAD79B02B
:1063440074FF900193F0A3F0A374F8F0A3E4F0FDBC
:10635400FCFFFE12689290019274FFF0A374ADF0FA
:10636400A374C1F074FFA3F0A3F0A374F8F0A3E442
:10637400F07B02FAFDFC7F14FE124DDD9001927455
:1063840001F0A37430F0A3747DF0A314F07BF07AD1
:10639400007D107C00E4FFFE12A4A190019274FF22
:1063A400F0A374ADF0A374CCF074FFA3F0A3F0A336
:1063B40074F8F0A3741FF07B027A007D077C007FE1
:1063C400027E00124DDD90019274FFF0A374ADF0D3
:1063D400A374D5F074FFA3F0A3F0A374F8F0A3742E
:1063E4001FF07B027A007D077C007F0B7E00124D3C
:1063F400DD90019274FFF0A374ADF0A374DEF07429
:10640400FFA3F0A3F0A374F8F0A3741FF07B027A47
:10641400007D077C007F147E00124DDD9001927494
:10642400FFF0A374ADF0A374E7F074FFA3F0A3F03E
:10643400A374F8F0A3741FF07B027A007D0D7C0036
:106444007F027E00124DDD90019274FFF0A374ADC3
:10645400F0A374F0F074FFA3F0A3F0A374F8F0A316
:10646400741FF07B027A007D0D7C007F0B7E00128E
:106474004DDD90019274FFF0A374ADF0A374F9F0B4
:1064840074FFA3F0A3F0A374F8F0A3741FF07B02CD
:106494007A007D0D7C007F147E00124DDD90019208
:1064A40074FFF0A374AEF0A37402F074FFA3F0A31E
:1064B400F0A374F8F0A3741FF07B027A007D127CC1
:1064C400007F027E00124DDD90017EE4F0A374375C
:1064D400F0A3123418006190009001841234180063
:1064E40061BF447B377A007D327C007F117E0012CD
:1064F4007ABC90017EE4F0A37437F0A31234180040
:1065040061B0009001841234180061DF447B377A53
:10651400007D327C007F5C7E00127ABC90017EE4B8
:10652400F0A37437F0A31234180061D000900184F2
:106534001234180061FF447B377A007D327C007F7F
:10654400A77E00127ABC90017EE4F0A37437F0A316
:1065540074FFF0A37406F0A37426F07B377A007DF1
:106564008C7C007F117E00127C6190017EE4F0A39C
:106574007437F0A3123418006210009001841234AE
:106584001800623F447B377A007D8C7C007F5C7E00
:1065940000127ABC90017EE4F0A37437F0A31234A5
:1065A400180062300090018412341800625F447B4A
:1065B400377A007D8C7C007FA77E00127ABC900124
:1065C4007EE4F0A37437F0A374FFF0A37400F0A387
:1065D4007400F07B377A007DE67C007F117E000238
:0265E4007C61D8
:1065E60012633412B5DA12B9C6EF70F71294B5EF2A
:1065F60060F1E490046AF0900403E0FEA3E0FFD3A8
:106606009432EE94004062EF9469EE9400505A90F2
:106616000401E0FEA3E0FF9411EE94004011EF9414
:1066260048EE9400500990046A7401F002670DD395
:10663600EF945CEE94004011EF9493EE94005009B1
:1066460090046A7402F002670DD3EF94A7EE9400EB
:10665600500302670DEF94DEEE9400400302670DCF
:1066660090046A7403F002670D900403E0FEA3E051
:10667600FFD3948CEE94004059EF94C3EE940050EF
:1066860051900401E0FEA3E0FF9411EE9400401047
:10669600EF9448EE9400500890046A7404F0806702
:1066A600D3EF945CEE94004010EF9493EE94005078
:1066B6000890046A7405F0804ED3EF94A7EE940018
:1066C6004045EF94DEEE9400503D90046A7406F067
:1066D6008035900403E0FEA3E0FFD394E6EE940039
:1066E6004025EF941DEE9401501D900401E0FEA399
:1066F600E0FF9411EE9400400EEF9448EE940050A3
:106706000690046A7407F090046AE0B401249001CC
:106716009274FFF0A374ADF0A374CCF074FFA3F0F1
:10672600A3F0A3E4F0A3741FF07B027A007D0702B6
:10673600684090046AE0B4022390019274FFF0A3CB
:1067460074ADF0A374D5F074FFA3F0A3F0A3E4F046
:10675600A3741FF07B027A007D07807E90046AE0B6
:10676600B4032490019274FFF0A374ADF0A374DE19
:10677600F074FFA3F0A3F0A3E4F0A3741FF07B0270
:106786007A007D0702680E90046AE0B40424900142
:106796009274FFF0A374ADF0A374E7F074FFA3F056
:1067A600A3F0A3E4F0A3741FF07B027A007D0D0230
:1067B600684090046AE0B4052790019274FFF0A344
:1067C60074ADF0A374F0F074FFA3F0A3F0A3E4F0AB
:1067D600A3741FF07B027A007D0D7C007F0B805E28
:1067E60090046AE0B4062790019274FFF0A374AD9A
:1067F600F0A374F9F074FFA3F0A3F0A3E4F0A3747C
:106806001FF07B027A007D0D7C007F14803090049F
:106816006AE0640760030265E990019274FFF0A3E1
:1068260074AEF0A37402F074FFA3F0A3F0A3E4F037
:10683600A3741FF07B027A007D127C007F027E002B
:10684600124DDD12B9C6EF60FA90046AE014B4077F
:1068560000503890686775F003A4C58325F0C5839A
:106866007302687C02687F02688202688502688813
:1068760002688B02688E026D2002AACB02464F0286
:0C68860035D1026F39029A8A128B55221C
:10B67F00D6F7BDE7C3E600BCCCB5E7C6F7B2E2CA62
:10B68F00D400B7B520BBD8004F4646004F204E0020
:10B8820043B22053B1DF43CA0253C9FDD2B5D2C974
:01B892002293
:03B9E600C2B522C5
:03B9E900C2C922AE
:03B9EC00D2B522AF
:03B9EF00D2C92298
:10A328009001927401F0A37430F0A3747DF0A3142B
:10A33800F07BF07A007D107C00E4FFFE12A4A17D82
:10A348001F7C007F137E0012A8D890019274FFF042
:10A35800A374B6F0A3747FF074FFA3F0A3F0A37402
:10A36800F8F0A3E4F07B02FA7D13FCFFFE124DDD4A
:10A37800900192E4F0A37435F0A374BCF0A3744088
:10A38800F07B707A007D7D7C007F377E0012A4A16F
:10A39800900192E4F0A3742FF0A3747FF0A374FFEC
:10A3A800F07B697A007D827C007F3C7E0012A4A14C
:10A3B80090019274FFF0A374B6F0A37486F0A374AE
:10A3C800BCF0A37440F0A3747FF0A374FFF07B0289
:0DA3D8007A007D097C007F097E00024DDDCA
:10AEB2009001927401F0A37430F0A3747DF0A31496
:10AEC200F07BF07A007D107C00E4FFFE12A4A17DED
:10AED2001F7C007F137E0012A8D890019274FFF0AD
:10AEE200A374B6F0A37491F074FFA3F0A3F0A3745B
:10AEF200F8F0A3E4F07B02FA7D13FCFFFE024DDDC5
:10AB4100EF64027067900192F0A37435F0A374F87A
:10AB5100F0A3E4F07B70FA7D7DFC7F37FE12A4A1A7
:10AB6100900192E4F0A3742FF0A3747FF0A374FF1B
:10AB7100F07B697A007D827C007F3C7E0012A4A17B
:10AB810090019274FFF0A374B6F0A37486F0A374DD
:10AB9100F8F0A3E4F0A3747FF0A374FFF07B027AD2
:0DABA100007D097C007F097E00124DDD2241
:10891300900178EFF060030289A5900192F0A374AF
:1089230035F074FFA3F0A3F07B707A007D4B7C00DD
:108933007F377E0012A4A1900192E4F0A3742BF080
:10894300A374BCF0A37440F07B667A007D507C0076
:108953007F3C7E0012A4A1900192E4F0A37427F05F
:1089630074FFA3F0A3F07B317A007D527C007F6F0C
:108973007E0012A4A190019274FFF0A374B6F0A339
:108983007497F0A374F8F0A3E4F074FFA3F0A3F0DA
:108993007B027A007D067C007F0F7E00124DDDD2C4
:1089A300B522900178E064016003028A339001925A
:1089B300F0A37435F074FFA3F0A3F07B707A007D0D
:1089C3004B7C007F377E0012A4A1900192E4F0A3B8
:1089D300742BF0A374F8F0A3E4F07B66FA7D50FCEB
:1089E3007F3CFE12A4A1900192E4F0A37427F074DB
:1089F300FFA3F0A3F07B317A007D527C007F3E7EA3
:108A03000012A4A190019274FFF0A374B6F0A374B2
:108A13009BF0A374F8F0A3E4F074FFA3F0A3F07B3E
:108A2300027A007D067C007F097E00124DDDC2B50F
:018A33002220
:108A3400900178EFF06003028AC6900192F0A3746B
:108A440035F074FFA3F0A3F07B707A007DAA7C005C
:108A54007F377E0012A4A1900192E4F0A3742BF05E
:108A6400A374BCF0A37440F07B667A007DAF7C00F5
:108A74007F3C7E0012A4A1900192E4F0A37427F03D
:108A840074FFA3F0A3F07B317A007DB17C007F6F8B
:108A94007E0012A4A190019274FFF0A374B6F0A317
:108AA4007497F0A374F8F0A3E4F074FFA3F0A3F0B8
:108AB4007B027A007D0C7C007F0F7E00124DDDD29C
:108AC400C922900178E064016003028B5490019202
:108AD400F0A37435F074FFA3F0A3F07B707A007DEB
:108AE400AA7C007F377E0012A4A1900192E4F0A337
:108AF400742BF0A374F8F0A3E4F07B66FA7DAFFC6A
:108B04007F3CFE12A4A1900192E4F0A37427F074B8
:108B1400FFA3F0A3F07B317A007DB17C007F3E7E21
:108B24000012A4A190019274FFF0A374B6F0A37490
:108B34009BF0A374F8F0A3E4F074FFA3F0A3F07B1C
:108B4400027A007D0C7C007F097E00124DDDC2C9D3
:018B540022FE
:109B7900E4FF128913029C5712B9C6EF70FA1294C6
:109B8900B5EF60F4900401E0FEA3E0FFC39430EE6A
:109B990094005013900404E0942A900403E0940183
:109BA9004005D2C9D2B522C3EF94A0EE9400504526
:109BB900900402E0946F900401E09400403790040F
:109BC90003E0FEA3E0FF9479EE9400500CEF945269
:109BD900EE940040047F018051900403E0FEA3E06D
:109BE900FFC394D8EE9400508FEF94B1EE940040E7
:109BF900877F01805B900401E0FEA3E0FFC3946FBF
:109C0900EE94004003029B81EF943EEE94005003D2
:109C1900029B81A3E0FEA3E0FF9479EE940050102B
:109C2900EF9452EE94004008E4FF128913029B81DD
:109C3900900403E0FEA3E0FFC394D8EE9400400330
:109C4900029B81EF94B1EE94005003029B81E4FFE3
:069C5900128A34029B8117
:10AACB0012A32812B88212B9C6EF70FA1294B5EF1E
:10AADB0060F4900401E0FEA3E0FFC39430EE940019
:10AAEB00500F900404E0942A900403E09401400179
:10AAFB0022D3EF9437EE940040CC900402E094A75D
:10AB0B00900401E0940050BE900403E0FEA3E0FF2C
:10AB1B00947DEE940040AFEF94ADEE940050A77F80
:10AB2B000212AB417FF47E0112B63F12AEB2129B02
:06AB3B007912A3288090AE
:10A7C9004350553A535443313557344B3438533445
:10A7D90000D2D7CBBCB4EFBFC6BCBC00D6F7BDE72F
:10A7E900C3E600310032003300340035003600374B
:10A7F9000038003900430030004400200041542B48
:10A80900534E46533D300D0A00415444000D0A0091
:10A81900202043414C4C494E472E2E2E00B9D2B62A
:10A82900CF004154480D0A00D3D0C0B4B5E72E2E4D
:10A839002E00414E53574552004154410D0A0043E1
:0AA84900414C4C494E472E2E2E00C4
:106193005303B600000000000000000000000000F0
:1061A3000000000000004C03A700000000000000F6
:1061B30000000000004C03C90000000000000000C4
:1061C300000000004103B3004203A500004203B4F2
:0261D3000001C9
:1059B8007D007CF8E4FFFE12A8D87BFF7AA779C99E
:1059C80074FF900193F0A3F0A374F8F0A3E4F0FD42
:1059D800FCFFFE12689290019274FFF0A374A7F086
:1059E800A374DAF074FFA3F0A3F0A374F8F0A3E4AF
:1059F800F07B02FAFDFC7F14FE124DDD90019274DB
:105A080001F0A37430F0A3747DF0A314F07BF07A56
:105A1800007D107C00E4FFFE12A4A190019274FFA7
:105A2800F0A374A7F0A374E5F074FFA3F0A3F0A3A8
:105A380074F8F0A3E4F07B02FA7D13FCFFFE124D2C
:105A4800DD90017FE4F0A37438F0A3E4F0A3741FA1
:105A5800F07BE07A007D107C007F107E00129C5F56
:105A680090017EE4F0A3741FF07B187A007D5C7CC3
:105A7800007F307E0012732E90017EE4F0A3741F25
:105A8800F07B187A007D5C7C007F787E0012732E94
:105A980090017EE4F0A3741FF07B187A007D5C7C93
:105AA800007FC07E0012732E90017EE4F0A3741F65
:105AB800F07B187A007D987C007F307E0012732E70
:105AC80090017EE4F0A3741FF07B187A007D987C27
:105AD800007F787E0012732E90017EE4F0A3741F7D
:105AE800F07B187A007D987C007FC07E0012732EB0
:105AF80090017EE4F0A3741FF07B187A007DD67CB9
:105B0800007F307E0012732E90017EE4F0A3741F94
:105B1800F07B187A007DD67C007F787E0012732E89
:105B280090017EE4F0A3741FF07B187A007DD67C88
:105B3800007FC07E0012732E90017EE4F0A3741FD4
:105B4800F07B187A007D147C017F307E0012732E62
:105B580090017EE4F0A3741FF07B187A007D147C1A
:105B6800017F787E0012732E90017EE4F0A3741FEB
:105B7800F07B187A007D147C017FC07E0012732EA2
:105B880090019274FFF0A374A7F0A374ECF0E4A35F
:105B9800F0A3F0A3747DF0A314F07B047A007D02D7
:105BA8007C007F027E00124DDD90019274FFF0A30D
:105BB80074A7F0A374EEF0E4A3F0A3F0A3747DF04F
:105BC800A314F07B047A007D027C007F077E00121C
:105BD8004DDD90019274FFF0A374A7F0A374F0F068
:105BE800E4A3F0A3F0A3747DF0A314F07B047A007F
:105BF8007D027C007F0C7E00124DDD90019274FFC7
:105C0800F0A374A7F0A374F2F0E4A3F0A3F0A374D4
:105C18007DF0A314F07B047A007D047C007F027E73
:105C280000124DDD90019274FFF0A374A7F0A374E5
:105C3800F4F0E4A3F0A3F0A3747DF0A314F07B04C4
:105C48007A007D047C007F077E00124DDD90019272
:105C580074FFF0A374A7F0A374F6F0E4A3F0A3F024
:105C6800A3747DF0A314F07B047A007D047C007F8C
:105C78000C7E00124DDD90019274FFF0A374A7F022
:105C8800A374F8F0E4A3F0A3F0A3747DF0A314F0D8
:105C98007B047A007D067C007F027E00124DDD9039
:105CA800019274FFF0A374A7F0A374FAF0E4A3F0D0
:105CB800A3F0A3747DF0A314F07B047A007D067C26
:105CC800007F077E00124DDD90019274FFF0A374EF
:105CD800A7F0A374FCF0E4A3F0A3F0A3747DF0A3F1
:105CE80014F07B047A007D067C007F0C7E00124D48
:105CF800DD90019274FFF0A374A7F0A374FEF0E4A2
:105D0800A3F0A3F0A3747DF0A314F07B047A007DC4
:105D1800087C007F027E00124DDD90019274FFF036
:105D2800A374A8F0A37400F0E4A3F0A3F0A3747D17
:105D3800F0A314F07B047A007D087C007F077E00C6
:105D4800124DDD90019274FFF0A374A8F0A37402C1
:105D5800F0E4A3F0A3F0A3747DF0A314F07B047A1D
:0C5D6800007D087C007F0C7E00024DDDF9
:1035D100E49003A5F0A3F090046AF09003B4F0A383
:1035E10004F01259B812B5DA12B9C6EF6003023805
:1035F100041294B5EF7003023804E490046AF09069
:103601000401E0FEA3E0FFC39430EE940050199052
:103611000404E09430900403E09401400B9003A56E
:10362100E4F0A304F0023A01900403E0FCA3E0FDFE
:10363100D39450EC9400406FED9468EC9400506783
:10364100EF9424EE94004017900402E0943C90041F
:1036510001E09400500990046A7401F0023804906A
:103661000401E0FEA3E0FFD3946CEE94004011EF5F
:103671009484EE9400500990046A7402F0023804B4
:10368100900401E0FEA3E0FFD394B4EE9400500354
:10369100023804EF94CCEE94004003023804900405
:1036A1006A7403F0023804900403E0FEA3E0FFD340
:1036B100948CEE94004069EF94A4EE9400506190D4
:1036C1000401E0FEA3E0FF9424EE94004011EF9486
:1036D1003CEE9400500990046A7404F0023804909E
:1036E1000401E0FEA3E0FFD3946CEE94004011EFDF
:1036F1009484EE9400500990046A7405F002380431
:10370100D3EF94B4EE94005003023804EF94CCEE5E
:103711009400400302380490046A7406F0023804ED
:10372100900403E0FEA3E0FFD394CAEE9400406549
:10373100EF94E2EE9400505D900401E0FEA3E0FFFF
:103741009424EE94004011EF943CEE9400500990C3
:10375100046A7407F0023804900401E0FEA3E0FF5C
:10376100D3946CEE94004011EF9484EE94005009D0
:1037710090046A7408F0023804D3EF94B4EE940014
:103781005003023804EF94CCEE9400507690046A12
:103791007409F0806E900403E0FEA3E0FFD3940867
:1037A100EE9401405EEF9420EE9401505690040196
:1037B100E0FEA3E0FF9424EE94004010EF943CEE71
:1037C1009400500890046A740AF08037900401E074
:1037D100FEA3E0FFD3946CEE94004010EF9484EECE
:1037E1009400500890046A740BF08017D3EF94B4DE
:1037F100EE9400400EEF94CCEE9400500690046AD3
:10380100740CF090046AE0B4012690017E74F8F023
:10381100A3E4F07B18FA7D5CFC7F30FE12732E90DE
:1038210003B5E004F070339003B4E004F0023A0110
:1038310090046AE0B4022690017E74F8F0A3E4F0EB
:103841007B18FA7D5CFC7F78FE12732E9003B5E045
:1038510004F070069003B4E004F0023A0190046AA7
:10386100E0B4032690017E74F8F0A3E4F07B18FA2B
:103871007D5CFC7FC0FE12732E9003B5E004F070F6
:10388100069003B4E004F0023A0190046AE0B40443
:103891002690017E74F8F0A3E4F07B18FA7D98FC81
:1038A1007F30FE12732E9003B5E004F07006900392
:1038B100B4E004F0023A0190046AE0B405269001F4
:1038C1007E74F8F0A3E4F07B18FA7D98FC7F78FE13
:1038D10012732E9003B5E004F070069003B4E00477
:1038E100F0023A0190046AE0B4062690017E74F871
:1038F100F0A3E4F07B18FA7D98FC7FC0FE12732ED2
:103901009003B5E004F070069003B4E004F0023ACD
:103911000190046AE0B4072690017E74F8F0A3E4F4
:10392100F07B18FA7DD6FC7F30FE12732E9003B522
:10393100E004F070069003B4E004F0023A01900450
:103941006AE0B4082690017E74F8F0A3E4F07B18D5
:10395100FA7DD6FC7F78FE12732E9003B5E004F059
:1039610070069003B4E004F0023A0190046AE0B4F6
:10397100092590017E74F8F0A3E4F07B18FA7DD656
:10398100FC7FC0FE12732E9003B5E004F070069028
:1039910003B4E004F0806990046AE0B40A14900171
:1039A1007E74F8F0A3E4F07B18FA7D147C017F307B
:1039B100804A90046AE0B40B2690017E74F8F0A36B
:1039C100E4F07B18FA7D147C017F78FE12732E904F
:1039D10003B5E004F070299003B4E004F080219075
:1039E100046AE0640C60030235E690017E74F8F02D
:1039F100A3E4F07B18FA7D147C017FC0FE12732EC4
:103A010012B9C6EF60FA90046AE014B40C004003E6
:103A1100023E56903A2275F003A4C58325F0C58372
:103A210073023A46023A9E023AF6023B4E023BA626
:103A3100023BFE023C56023CAE023D06023D5D02E7
:103A41003D83023DE490017EE4F0A3741FF07B18F6
:103A51007A007D5C7C007F307E0012732E9003B46F
:103A6100E0FEA3E0FF90019274FFF0A374A7F0A31E
:103A710074ECF0A374F8F0A3741FF0A3747DF0A3A9
:103A810014F07B037A007D017C00124DDD90017BF7
:103A910074FFF0A374A7F0A374EC023DD890017EEB
:103AA100E4F0A3741FF07B187A007D5C7C007F78C2
:103AB1007E0012732E9003B4E0FEA3E0FF9001920A
:103AC10074FFF0A374A7F0A374EEF0A374F8F0A34D
:103AD100741FF0A3747DF0A314F07B037A007D01C1
:103AE1007C00124DDD90017B74FFF0A374A7F0A35D
:103AF10074EE023DD890017EE4F0A3741FF07B18B0
:103B01007A007D5C7C007FC07E0012732E9003B42E
:103B1100E0FEA3E0FF90019274FFF0A374A7F0A36D
:103B210074F0F0A374F8F0A3741FF0A3747DF0A3F4
:103B310014F07B037A007D017C00124DDD90017B46
:103B410074FFF0A374A7F0A374F0023DD890017E36
:103B5100E4F0A3741FF07B187A007D987C007F301D
:103B61007E0012732E9003B4E0FEA3E0FF90019259
:103B710074FFF0A374A7F0A374F2F0A374F8F0A398
:103B8100741FF0A3747DF0A314F07B037A007D0110
:103B91007C00124DDD90017B74FFF0A374A7F0A3AC
:103BA10074F2023DD890017EE4F0A3741FF07B18FB
:103BB1007A007D987C007F787E0012732E9003B48A
:103BC100E0FEA3E0FF90019274FFF0A374A7F0A3BD
:103BD10074F4F0A374F8F0A3741FF0A3747DF0A340
:103BE10014F07B037A007D017C00124DDD90017B96
:103BF10074FFF0A374A7F0A374F4023DD890017E82
:103C0100E4F0A3741FF07B187A007D987C007FC0DC
:103C11007E0012732E9003B4E0FEA3E0FF900192A8
:103C210074FFF0A374A7F0A374F6F0A374F8F0A3E3
:103C3100741FF0A3747DF0A314F07B037A007D015F
:103C41007C00124DDD90017B74FFF0A374A7F0A3FB
:103C510074F6023DD890017EE4F0A3741FF07B1846
:103C61007A007DD67C007F307E0012732E9003B4E3
:103C7100E0FEA3E0FF90019274FFF0A374A7F0A30C
:103C810074F8F0A374F8F0A3741FF0A3747DF0A38B
:103C910014F07B037A007D017C00124DDD90017BE5
:103CA10074FFF0A374A7F0A374F8023DD890017ECD
:103CB100E4F0A3741FF07B187A007DD67C007F7836
:103CC1007E0012732E9003B4E0FEA3E0FF900192F8
:103CD10074FFF0A374A7F0A374FAF0A374F8F0A32F
:103CE100741FF0A3747DF0A314F07B037A007D01AF
:103CF1007C00124DDD90017B74FFF0A374A7F0A34B
:103D010074FA023DD890017EE4F0A3741FF07B1891
:103D11007A007DD67C007FC07E0012732E9003B4A2
:103D2100E0FEA3E0FF90019274FFF0A374A7F0A35B
:103D310074FCF0A374F8F0A3741FF0A3747DF0A3D6
:103D410014F07B037A007D017C00124DDD90017B34
:103D510074FFF0A374A7F0A374FC807B90017EE450
:103D6100F0A3741FF07B187A007D147C017F307EF4
:103D71000012732E9003A5E4F0A304F012ACEA0242
:103D81003E5690017EE4F0A3741FF07B187A007D0B
:103D9100147C017F787E0012732E9003B4E0FEA3A1
:103DA100E0FF90019274FFF0A374A8F0A37400F0F7
:103DB100A374F8F0A3741FF0A3747DF0A314F07B37
:103DC100037A007D017C00124DDD90017B74FFF0D0
:103DD100A374A8F0A37400F07B017A0379C912AB34
:103DE100AE807290017EE4F0A3741FF07B187A001C
:103DF1007D147C017FC07E0012732E9003B4E0FE1F
:103E0100A3E0FFD39401EE64809480404890019236
:103E110074FFF0A374A8F0A37404F0A374F8F0A3E2
:103E2100741FF0A3747DF0A314F07B037A007D016D
:103E31007C00124DDD9003B4E0FEA3E024C7F582BF
:103E410074033EF583E4F09003B5E024FFF09003A2
:103E5100B4E034FFF0E490046AF09003A5E070044C
:103E6100A3E0640160030235E69003A5F0A3F0121C
:033E710065E622E1
:10ACEA00E4900295F07BFF7AA8790612B2D490021A
:10ACFA0095E0B401F978B67C037D017BFF7AA879E7
:10AD0A001212358890017B7401F0A37403F0A374C6
:10AD1A00C9F07B017A0379B612ABAE90017B74FF5E
:10AD2A00F0A374A8F0A37416F07B017A0379B61223
:10AD3A00ABAE7B017A0379B612B2D4E49003B3F0D6
:03AD4A00028C6C0C
:108C6C009001927401F0A37430F074FFA3F0A3F0A0
:108C7C007BF07A007D107C00E4FFFE12A4A1900131
:108C8C009274FFF0A374A8F0A37419F0A3E4F0A3FA
:108C9C00741FF074FFA3F0A3F07B027A007D077CB5
:108CAC00007F097E00124DDD900181E4F0A3743247
:108CBC00F0A374F8F0A3E4F07B96FA7DC8FC7F3245
:108CCC00FE12A85390019274FFF0A374A8F0A37441
:108CDC0026F074FFA3F0A3F0A374F8F0A3E4F07BE8
:108CEC0002FA7D0EFC7F0DFE124DDD900192740197
:108CFC00F0A37403F0A374C9F0A374F8F0A3E4F028
:108D0C0074FFA3F0A3F07B027A007D047C007F0942
:108D1C007E00124DDD12B9C6EF70FA1294B5EF60F9
:108D2C00F4900401E0FEA3E0FFD39432EE940040F3
:108D3C00E4EF94C8EE940050DCA3E0FEA3E0FF94B3
:108D4C00C8EE940040CFEF94FAEE940050C77BFF2E
:108D5C007AA8792B12B2D47E007F0C7D007B017A2D
:108D6C000379C91235A57E007F137D007B017A0340
:068D7C0079B61235A522B4
:106AFE009001927401F0A37430F074FFA3F0A3F030
:106B0E007BF07A007D107C00E4FFFE12A4A19001C0
:106B1E009274FFF0A374A8F0A37431F0A3E4F0A371
:106B2E00741FF074FFA3F0A3F07B027A007D057C46
:106B3E00007F0B7E00124DDD9001927401F0A37464
:106B4E0003F0A374A7F0A3E4F0A3741FF074FFA3E3
:106B5E00F0A3F07B027A007D077C007F097E001295
:106B6E004DDD900181E4F0A37445F0A37407F0A30A
:106B7E0074E0F07B787A007DFA7C00E4FFFE12A8C8
:106B8E0053900181E4F0A37445F0A374F8F0A3E4EC
:106B9E00F07B77FA7DFAFC7F79FE12A85390019272
:106BAE0074FFF0A374A8F0A3743BF074FFA3F0A3DA
:106BBE00F0A37407F0A374E0F07B027A007D117CE1
:106BCE00007F037E00124DDD90019274FFF0A374DE
:106BDE00A8F0A37426F074FFA3F0A3F0A374F8F04A
:106BEE00A3E4F07B02FA7D11FC7F13FE124DDDD281
:106BFE008C9004697401F07E007F0C7D00FB7A039B
:106C0E0079A71235A57BFF7AA8790612B2D412B9EC
:106C1E00C6EF70FA1294B5EF60F4900401E0FEA393
:106C2E00E0FFD39400EE94005003026CC5EF94780D
:106C3E00EE94004003026CC5A3E0FEA3E0FF94FABD
:106C4E00EE94004072EF943FEE9401506A12B9C672
:106C5E00EF60FA7BFF7AA8794212B2D49001927457
:106C6E00FFF0A374A8F0A37448F0A3E4F0A3741F7C
:106C7E00F074FFA3F0A3F07B027A007D057C007F09
:106C8E000A7E00124DDD9001927401F0A37403F0A0
:106C9E00A374A7F0A3E4F0A3741FF074FFA3F0A3F2
:106CAE00F07B027A007D077C007F097E00124DDDAD
:106CBE00C28CE4900469F0900401E0FEA3E0FFD3DF
:106CCE009478EE94005003026C1CEF94EFEE940057
:106CDE004003026C1CA3E0FEA3E0FF94FAEE9400C6
:106CEE005003026C1CEF943FEE94014003026C1CA7
:106CFE007BFF7AA8792B12B2D4C28CE4900469F08F
:106D0E007FE87E0312B63FE4900297F01265E6022A
:026D1E006C1CEB
:10B5DA00900297E0B4010E900292E0B40107E4F001
:10B5EA009002978008900297E0B40105E4F0126A8D
:02B5FA00FE222F
:10B73C00D6F7BDE7C3E600D5F0B6AFBCECB2E2007D
:09B74C00D5CFB0ADBCECB2E200B7
:10B6BB0053B2FB43B10453B2F743B10853B2BF4388
:0BB6CB00B14043B40253B3FD02B93993
:10AF02009001927401F0A37430F0A3747DF0A31445
:10AF1200F07BF07A007D107C00E4FFFE12A4A17D9C
:10AF22001F7C007F137E0012A8D890019274FFF05C
:10AF3200A374B7F0A3743CF074FFA3F0A3F0A3745E
:10AF4200F8F0A3E4F07B02FA7D13FCFFFE024DDD74
:1092A90090046BEFF07072900192F0A37435F07432
:1092B900FFA3F0A3F07B707A007D4B7C007F377EA3
:1092C9000012A4A1900192E4F0A3742BF0A374BC42
:1092D900F0A37440F07B667A007D507C007F3C7E71
:1092E9000012A4A1900192E4F0A37427F074FFA3E3
:1092F900F0A3F07B627A007D527C007F3E7E0012F3
:10930900A4A190019274FFF0A374B7F0A37443F081
:10931900A374BCF0A37440807690046BE064016090
:10932900030293AE900192F0A37435F074FFA3F099
:10933900A3F07B707A007D4B7C007F377E0012A4FE
:10934900A1900192E4F0A3742BF0A374F8F0A3E4C4
:10935900F07B66FA7D50FC7F3CFE12A4A19001923D
:10936900E4F0A37427F074FFA3F0A3F07B627A0002
:109379007D527C007F3E7E0012A4A190019274FF71
:10938900F0A374B7F0A37443F0A374F8F0A3E4F066
:1093990074FFA3F0A3F07B027A007D067C007F0AAC
:0693A9007E00124DDD22E2
:1093AF0090046CEFF07072900192F0A37435F0742A
:1093BF00FFA3F0A3F07B707A007DAA7C007F377E3D
:1093CF000012A4A1900192E4F0A3742BF0A374BC3B
:1093DF00F0A37440F07B667A007DAF7C007F3C7E0B
:1093EF000012A4A1900192E4F0A37427F074FFA3DC
:1093FF00F0A3F07B627A007DB17C007F3E7E00128D
:10940F00A4A190019274FFF0A374B7F0A3744CF071
:10941F00A374BCF0A37440807690046CE064016088
:10942F00030294B4900192F0A37435F074FFA3F08B
:10943F00A3F07B707A007DAA7C007F377E0012A498
:10944F00A1900192E4F0A3742BF0A374F8F0A3E4BD
:10945F00F07B66FA7DAFFC7F3CFE12A4A1900192D7
:10946F00E4F0A37427F074FFA3F0A3F07B627A00FB
:10947F007DB17C007F3E7E0012A4A190019274FF0B
:10948F00F0A374B7F0A3744CF0A374F8F0A3E4F056
:10949F0074FFA3F0A3F07B027A007D0C7C007F0A9F
:0694AF007E00124DDD22DB
:10AE0B0012AF0212B6BBE4FF1292A9E4FF1293AF8A
:10AE1B0012B9C6EF70291294B5EF6023C3900402E8
:10AE2B00E09430900401E094005014900404E094FA
:10AE3B002A900403E09401400612B9DA02B9DD301E
:10AE4B00B30512B9D4800312B9DA20B60512B9D7FB
:07AE5B0080BE12B9DD80B9D1
:10B8B400583A00593A005A3A00416E676C653A00AA
:1061D5004703D5000000000000004803DC00000074
:0561E5000000000000B5
:10B52C00900459EFF0A3EDF012B79D7F3C12B3D30A
:10B53C00900459E0FF12B3D390045AE0FF12B3D336
:03B54C0002B8380A
:05B33A0090045BEFF040
:10B33F0012B79D7F3C12B3D390045BE0FF12B3D3DF
:10B34F0012B79D7F3D12B3D312B04290045CEFF061
:0DB35F00D20012B7E212B83890045CE0FF93
:01B36C0022BE
:10AF520012B79D7F3C12B3D37F0312B3D312B79DB6
:10AF62007F3D12B3D3E490046DF012B04290046DB1
:10AF7200E0FE24D5F582E43403F583EFF0EEB40568
:10AF820004D2008002C20012B7E290046DE004F025
:10AF9200E0C3940640D412B8387F057E0002B63F63
:07000300E4FD7F0202B52CB1
:1096B0009003D5E0FEA3E0FDEDFF9003E4EEF0A300
:1096C000EFF0FBAA06C3EA64809480500FC3E49BCA
:1096D000FBE49AFA9003DC742DF080069003DC74AE
:1096E0002BF07C277D10AF03AE02123210EF243036
:1096F0009003DDF07C277D10AF03AE02123210AA7A
:1097000004AB057C037DE8AF03AE02123210EF24F8
:1097100030A3F07C037DE8AF03AE02123210AA043E
:10972000AB057C007D64AF03AE02123210EF243033
:10973000A3F07C007D64AF03AE02123210AA04AB2A
:10974000057C007D0AAF03AE02123210EF2430A375
:10975000F0A3742EF07C007D0AAF03AE021232102B
:10976000AB05EB2430A3F0E4A3F07BFF7AB879B427
:10977000900193F0A3F0A3747FF0A374FFF07D0435
:109780007C00E4FFFE1268927B017A0379DCE490AE
:109790000193F0A3F0A3747FF0A374FFF07D047C29
:0897A000007F027E00026892C6
:1097A8009003D9E0FEA3E0FDEDFF9003E6EEF0A301
:1097B800EFF0FBAA06C3EA64809480500FC3E49BD1
:1097C800FBE49AFA9003DC742DF080069003DC74B5
:1097D8002BF07C277D10AF03AE02123210EF24303D
:1097E8009003DDF07C277D10AF03AE02123210AA81
:1097F80004AB057C037DE8AF03AE02123210EF2400
:1098080030A3F07C037DE8AF03AE02123210AA0445
:10981800AB057C007D64AF03AE02123210EF24303A
:10982800A3F07C007D64AF03AE02123210AA04AB31
:10983800057C007D0AAF03AE02123210EF2430A37C
:10984800F0A3742EF07C007D0AAF03AE0212321032
:10985800AB05EB2430A3F0E4A3F07BFF7AB879B72B
:10986800900193F0A3F0A3747FF0A374FFF07D053B
:109878007C00E4FFFE1268927B017A0379DCE490B5
:109888000193F0A3F0A3747FF0A374FFF07D057C2F
:08989800007F027E00026892CD
:1098A0009003D7E0FEA3E0FDEDFF9003E8EEF0A308
:1098B000EFF0FBAA06C3EA64809480500FC3E49BD8
:1098C000FBE49AFA9003DC742DF080069003DC74BC
:1098D0002BF07C277D10AF03AE02123210EF243044
:1098E0009003DDF07C277D10AF03AE02123210AA88
:1098F00004AB057C037DE8AF03AE02123210EF2407
:1099000030A3F07C037DE8AF03AE02123210AA044C
:10991000AB057C007D64AF03AE02123210EF243041
:10992000A3F07C007D64AF03AE02123210AA04AB38
:10993000057C007D0AAF03AE02123210EF2430A383
:10994000F0A3742EF07C007D0AAF03AE0212321039
:10995000AB05EB2430A3F0E4A3F07BFF7AB879BA2F
:10996000900193F0A3F0A3747FF0A374FFF07D0641
:109970007C00E4FFFE1268927B017A0379DCE490BC
:109980000193F0A3F0A3747FF0A374FFF07D067C35
:08999000007F027E00026892D4
:10847E009003E6E0FCA3E0FDEC122DA2C004C005C3
:10848E00C006C0079003E4E0FCA3E0FDEC122DA2B1
:10849E0090043C12340CD007D006D005D00412A69E
:1084AE00A07BE07A2E79657842122B7EE4FBFA7976
:1084BE00347843122A8D90044812340CE4FFFE7D6A
:1084CE00207C41900448E0F8A3E0F9A3E0FAA3E091
:1084DE00FB122B7E122DDBAB07AA067C277D10121A
:1084EE003210EF24309003DCF07C277D10AF03AE0A
:1084FE0002123210AA04AB057C037DE8AF03AE0274
:10850E00123210EF2430A3F07C037DE8AF03AE02ED
:10851E00123210AA04AB057C007D64AF03AE0212CA
:10852E003210EF2430A3F07C007D64AF03AE021254
:10853E003210AA04AB057C007D0AAF03AE021232E4
:10854E0010EF2430A3F07C007D0AAF03AE0212328E
:10855E0010AB05A3742EF0AF03EF2430A3F0E4A309
:10856E00F07BFF7AB879BD74FF900193F0A3F0A36E
:10857E00E4F0A3741FF07D077C00E4FFFE12689206
:10858E007B017A0379DC74FF900193F0A3F0A3E4EE
:10859E00F0A3741FF07D077C007F067E00026892B8
:0FB9000012AF521296B01297A81298A002847E2E
:10B7CB00583A00593A005A3A00CEC2B6C83A00BDB0
:07B7DB00C7CBD9B6C83A0044
:1061EA004704210000000000000045041C000000D4
:0261FA000000A3
:10B54F0090045DEFF0A3EDF012B79D7FD212B3D34D
:10B55F0090045DE0FF12B3D390045EE0FF12B3D30B
:03B56F0002B838E7
:05B36D0090045FEFF009
:10B3720012B79D7FD212B3D390045FE0FF12B3D312
:10B3820012B79D7FD312B3D312B042900460EFF094
:0DB39200D20012B7E212B838900460E0FF5C
:01B39F00228B
:10AFA20012B79D7FD212B3D37F2812B3D312B79DAB
:10AFB2007FD312B3D3E490046EF012B04290046EC9
:10AFC200E0FE2421F582E43404F583EFF0EEB405CB
:10AFD20004D2008002C20012B7E290046EE004F0D4
:10AFE200E0C3940640D412B8387F057E0002B63F13
:10B572007D0F7F2012B54FE4FD7F2112B54F7D086C
:10B582007F2212B54F7D307F2312B54FE4FD7F2419
:03B5920002B54FB0
:109D45007F2812B36D900421EFF07F2912B36DA91E
:109D550007900422E9F0FE900421E07C002400FF36
:109D6500EC3EAB07FAAD03FC122DA27B297A5C7998
:109D75008F783D122B7E122DDBAA06AB07C3EA6452
:109D8500809480500FC3E49BFBE49AFA90041C7402
:109D95002DF0800690041C742BF07C007D64AF03CD
:109DA500AE02123210EF243090041DF07C007D6469
:109DB500AF03AE02123210AA04AB057C007D0AAFD8
:109DC50003AE02123210EF2430A3F07C007D0AAFFF
:109DD50003AE02123210AB05EB2430A3F0E4A3F07E
:109DE5007BFF7AB779CB900193F0A3F0A3747FF052
:109DF500A374FFF07D0F7C00E4FFFE1268927B01E7
:109E05007A04791CE4900193F0A3F0A3747FF0A386
:0E9E150074FFF07D0F7C007F027E00026892D9
:109E23007F2A12B36D900423EFF07F2B12B36DA939
:109E330007900424E9F0FE900423E07C002400FF53
:109E4300EC3EAB07FAAD03FC122DA27B297A5C79B9
:109E53008F783D122B7E122DDBAA06AB07C3EA6473
:109E6300809480500FC3E49BFBE49AFA90041C7423
:109E73002DF0800690041C742BF07C007D64AF03EE
:109E8300AE02123210EF243090041DF07C007D648A
:109E9300AF03AE02123210AA04AB057C007D0AAFF9
:109EA30003AE02123210EF2430A3F07C007D0AAF20
:109EB30003AE02123210AB05EB2430A3F0E4A3F09F
:109EC3007BFF7AB779CE900193F0A3F0A3747FF070
:109ED300A374FFF07D107C00E4FFFE1268927B0107
:109EE3007A04791CE4900193F0A3F0A3747FF0A3A8
:0E9EF30074FFF07D107C007F027E00026892FA
:109F01007F2C12B36D900425EFF07F2D12B36DA954
:109F110007900426E9F0FE900425E07C002400FF70
:109F2100EC3EAB07FAAD03FC122DA27B297A5C79DA
:109F31008F783D122B7E122DDBAA06AB07C3EA6494
:109F4100809480500FC3E49BFBE49AFA90041C7444
:109F51002DF0800690041C742BF07C007D64AF030F
:109F6100AE02123210EF243090041DF07C007D64AB
:109F7100AF03AE02123210AA04AB057C007D0AAF1A
:109F810003AE02123210EF2430A3F07C007D0AAF41
:109F910003AE02123210AB05EB2430A3F0E4A3F0C0
:109FA1007BFF7AB779D1900193F0A3F0A3747FF08E
:109FB100A374FFF07D117C00E4FFFE1268927B0127
:109FC1007A04791CE4900193F0A3F0A3747FF0A3C9
:0E9FD10074FFF07D117C007F027E000268921A
:10AA51007F2612B36DAD07EF75F064842430900446
:10AA61001CF0ED75F06484ADF0ED75F00A842430CE
:10AA7100A3F0ED75F00A84ADF0ED2430A3F0E4A36A
:10AA8100F090019274FFF0A374B7F0A374D4F0E4D2
:10AA9100A3F0A3F0A3747FF0A374FFF07B027A000C
:10AAA1007D127C00E4FFFE124DDD7B017A04791CEE
:10AAB100E4900193F0A3F0A3747FF0A374FFF07D01
:0AAAC100127C007F057E00026892FF
:10B4050090019274FFF0A374B7F0A374DAF074FF9F
:10B41500A3F0A3F0A3E4F0A3741FF07B027A007DF0
:10B425000E7C00E4FFFE124DDD129D45129E2302A7
:02B435009F0175
:10B89300583A00593A005A3A00BCD3CBD9B6C83A01
:01B8A30000A4
:1061FC0047040D00000000000000480414000000DB
:05620C0000000000008D
:10B59500900461EFF0A3EDF012B79D7FA612B3D32F
:10B5A500900461E0FF12B3D3900462E0FF12B3D3BD
:03B5B50002B838A1
:05B3A000900463EFF0D2
:10B3A50012B79D7FA612B3D3900463E0FF12B3D307
:10B3B50012B79D7FA712B3D312B042900464EFF089
:0DB3C500D20012B7E212B838900464E0FF25
:01B3D2002258
:10AFF20012B79D7FA612B3D37F3212B3D312B79D7D
:10B002007FA712B3D3E490046FF012B04290046FA2
:10B01200E0FE240DF582E43404F583EFF0EEB4058E
:10B0220004D2008002C20012B7E290046FE004F082
:10B03200E0C3940640D412B8387F057E0002B63FC2
:10B437007D0B7F3112B5957D087F2C12B5957D0860
:10B447007F2D12B5957D807F2E12B595E4FD7F1E69
:10B4570012B595E4FD7F1F12B5957D057F2002B5D6
:01B46700954F
:108D820090040EE0FE90040DE07C002400FFEC3E17
:108D9200FEC364809480500FC3E49FFFE49EFE9064
:108DA2000414742DF08006900414742BF0AD07ACFB
:108DB20006EC122DA27B9A7A9979797840122B7E51
:108DC200122DDBAB07AA067C277D10123210EF248E
:108DD20030900415F07C277D10AF03AE02123210E2
:108DE200AA04AB057C037DE8AF03AE02123210EF9A
:108DF2002430A3F0A3742EF07C037DE8AF03AE020F
:108E0200123210AA04AB057C007D64AF03AE0212DD
:108E12003210EF2430A3F07C007D64AF03AE021267
:108E22003210AA04AB057C007D0AAF03AE021232F7
:108E320010EF2430A3F07C007D0AAF03AE021232A1
:108E420010AB05EB2430A3F0E4A3F07BFF7AB879F2
:108E520093900193F0A3F0A3747FF0A374FFF07DCD
:108E62000A7C00E4FFFE1268927B017A047914E422
:108E7200900193F0A3F0A3747FF0A374FFF07D0A36
:098E82007C007F027E0002689270
:108E8B00900410E0FE90040FE07C002400FFEC3E09
:108E9B00FEC364809480500FC3E49FFFE49EFE905A
:108EAB000414742DF08006900414742BF0AD07ACF1
:108EBB0006EC122DA27B9A7A9979797840122B7E47
:108ECB00122DDBAB07AA067C277D10123210EF2484
:108EDB0030900415F07C277D10AF03AE02123210D8
:108EEB00AA04AB057C037DE8AF03AE02123210EF90
:108EFB002430A3F0A3742EF07C037DE8AF03AE0205
:108F0B00123210AA04AB057C007D64AF03AE0212D3
:108F1B003210EF2430A3F07C007D64AF03AE02125D
:108F2B003210AA04AB057C007D0AAF03AE021232ED
:108F3B0010EF2430A3F07C007D0AAF03AE02123297
:108F4B0010AB05EB2430A3F0E4A3F07BFF7AB879E8
:108F5B0096900193F0A3F0A3747FF0A374FFF07DC0
:108F6B000B7C00E4FFFE1268927B017A047914E417
:108F7B00900193F0A3F0A3747FF0A374FFF07D0B2B
:098F8B007C007F027E0002689266
:108F9400900412E0FE900411E07C002400FFEC3EFB
:108FA400FEC364809480500FC3E49FFFE49EFE9050
:108FB4000414742DF08006900414742BF0AD07ACE7
:108FC40006EC122DA27B9A7A9979797840122B7E3D
:108FD400122DDBAB07AA067C277D10123210EF247A
:108FE40030900415F07C277D10AF03AE02123210CE
:108FF400AA04AB057C037DE8AF03AE02123210EF86
:109004002430A3F0A3742EF07C037DE8AF03AE02FA
:10901400123210AA04AB057C007D64AF03AE0212C9
:109024003210EF2430A3F07C007D64AF03AE021253
:109034003210AA04AB057C007D0AAF03AE021232E3
:1090440010EF2430A3F07C007D0AAF03AE0212328D
:1090540010AB05EB2430A3F0E4A3F07BFF7AB879DE
:1090640099900193F0A3F0A3747FF0A374FFF07DB3
:109074000C7C00E4FFFE1268927B017A047914E40C
:10908400900193F0A3F0A3747FF0A374FFF07D0C20
:099094007C007F027E000268925C
:10B26B0090019274FFF0A374B8F0A3749CF074FF78
:10B27B00A3F0A3F0A3E4F0A3741FF07B027A007D8C
:10B28B00097C00E4FFFE124DDD12AFF2128D82122B
:05B29B008E8B028F9470
:10B0DA004350553A535443313557344B343853342B
:10B0EA0000D2D7CBBCB4EFBFC6BCBC00D6F7BDE715
:10B0FA00C3E600B3C2D7CFBFB500313538323735D2
:10B10A00393836373500BAEED3C0BFB500313538D5
:09B11A003237303737313731008C
:056211004204650000DD
:108210007D007CF8E4FFFE12A8D87BFF7AB079DA03
:1082200074FF900193F0A3F0A374F8F0A3E4F0FDC1
:10823000FCFFFE12689290019274FFF0A374B0F0FC
:10824000A374EBF074FFA3F0A3F0A374F8F0A3E41D
:10825000F07B02FAFDFC7F14FE124DDD900192745A
:1082600001F0A37430F0A3747DF0A314F07BF07AD6
:10827000007D107C00E4FFFE12A4A190019274FF27
:10828000F0A374B0F0A374F6F074FFA3F0A3F0A30E
:1082900074F8F0A3E4F07B02FA7D13FCFFFE124DAC
:1082A000DD90019274FFF0A374B0F0A374FDF0743C
:1082B000FFA3F0A3F0A374F8F0A3741FF07B037A7C
:1082C000007D037C007F017E00124DDD90019274E1
:1082D000FFF0A374B1F0A37404F074FFA3F0A3F053
:1082E000A374F8F0A3741FF07B037A007D037C0075
:1082F0007F087E00124DDD90019274FFF0A374B1EF
:10830000F0A37410F074FFA3F0A3F0A374F8F0A32B
:10831000741FF07B037A007D057C007F017E0012D4
:108320004DDD90019274FFF0A374B1F0A37417F0C7
:1083300074FFA3F0A3F0A374F8F0A3741FF07B0301
:0D8340007A007D057C007F087E00024DDD87
:108B5500E49003A5F0A3F0FE7F0CFD7B017A037979
:108B6500C91235A512821012B5DA12B9C6EF600323
:108B7500028C3E1294B5EF7003028C3EE490046AB9
:108B8500F0900401E0FEA3E0FFC39430EE940050A2
:108B950019900404E09430900403E09401400B9094
:108BA50003A5E4F0A304F0028C53900403E0FCA3B6
:108BB500E0FDD39430EC94004033ED9455EC9400F3
:108BC500502BEF941EEE9400406F900402E09460E9
:108BD500900401E09400506190046A7401F09001E2
:108BE5007B74FFF0A374B1F0A37404804290040376
:108BF500E0FEA3E0FFD3946EEE9400403CEF949327
:108C0500EE94005034900401E0FEA3E0FF941EEEC4
:108C150094004025EF9460EE9400501D90046A7412
:108C250001F090017B74FFF0A374B1F0A37417F009
:108C35007B017A0379C912ABAE90046AE0640160E6
:108C450003028B6C9003A5F0A304F012ACEA900329
:108C5500A5E07004A3E064016003028B6C9003A59A
:078C6500F0A3F01265E62206
:1000260000000000000000000000000000000000CA
:100036000000183C3C3C1818180018180000000076
:10004600006363632200000000000000000000005F
:1000560000000036367F3636367F36360000000022
:100066000C0C3E6361603E030343633E0C0C0000D0
:1000760000000000006163060C18336300000000F6
:100086000000001C36361C3B6E66663B0000000016
:10009600003030306000000000000000000000006A
:1000A60000000C18183030303018180C0000000012
:1000B6000000180C0C060606060C0C1800000000C2
:1000C6000000000042663CFF3C6642000000000063
:1000D60000000000181818FF18181800000000008B
:1000E6000000000000000000000018181830000092
:1000F60000000000000000FF0000000000000000FB
:1001060000000000000000000000181800000000B9
:1001160000000103070E1C3870E0C08000000000DC
:1001260000003E6363636B6B6363633E0000000025
:1001360000000C1C3C0C0C0C0C0C0C3F00000000CE
:1001460000003E6303060C183061637F0000000068
:1001560000003E6303031E030303633E000000002A
:100166000000060E1E3666667F06060F00000000BB
:1001760000007F6060607E030363733E0000000042
:1001860000001C3060607E636363633E0000000015
:1001960000007F630306060C0C1818180000000008
:1001A60000003E6363633E636363633E00000000DA
:1001B60000003E636363633F0303063C00000000E8
:1001C60000000000001818000000181800000000C9
:1001D6000000000000181800000018181830000071
:1001E600000000060C18306030180C0600000000F5
:1001F6000000000000007E00007E000000000000FD
:100206000000006030180C060C183060000000007A
:1002160000003E6363060C0C0C000C0C0000000092
:1002260000003E63636F6B6B6E60603E0000000013
:100236000000081C366363637F636363000000008D
:1002460000007E3333333E333333337E0000000009
:1002560000001E33616060606061331E00000000B4
:1002660000007C36333333333333367C00000000F2
:1002760000007F3331343C343031337F00000000DE
:1002860000007F3331343C343030307800000000D9
:1002960000001E336160606F6363371D000000005D
:1002A6000000636363637F6363636363000000004E
:1002B60000003C18181818181818183C0000000000
:1002C60000000F06060606060666663C00000000ED
